:020000040800F2
:10000000FC970120DD5600082557000825570008F9
:100010002557000825570008255700080000000054
:10002000000000000000000000000000255700084C
:100030002557000800000000255700083915000862
:1000400025570008255700082557000825570008A0
:100050002557000825570008255700082557000890
:1000600025570008255700082557000811110008DA
:100070002557000825570008255700082557000870
:100080002557000825570008255700082557000860
:100090002557000825570008255700082557000850
:1000A0002557000825570008255700082557000840
:1000B0002557000825570008255700082557000830
:1000C0002557000825570008255700082557000820
:1000D0002557000825570008255700082557000810
:1000E0002557000825570008255700080000000084
:1000F00025570008255700080000000000000000F8
:10010000000000000000000000000000255700086B
:100110002557000825570008B91100082557000881
:1001200025570008255700082557000825570008BF
:10013000255700080000000000000000000000003B
:10014000000000000000000000000000DD130008B7
:100150002557000825570008000000002557000813
:10016000255700082557000825570008255700087F
:1001700025570008E31300080000000000000000FD
:1001800000000000255700082557000825570008E3
:1001900000000000255700080000000000000000DB
:1001A000000000000000000000000000000000004F
:1001B0002557000800000000255700080000000037
:1001C000000000000000000000000000000000002F
:1001D000000000000000000000000000255700089B
:1001E00010B5054C237833B9044B13B10448AFF371
:1001F00000800123237010BDB00300200000000028
:100200002462000808B5034B1BB103490348AFF350
:10021000008008BD00000000B40300202462000834
:10022000034613F8012B002AFBD1181A0138704736
:1002300070470000F8B5194E194D00240C2733689B
:1002400093F8741040F25E324A4307FB04221344D1
:1002500093F81822032A0CD0042A16D00134202C3B
:10026000EDD14FF4807200210D48BDE8F84005F053
:100270002DBA05EBC4021279022AEFD193F81A12B3
:1002800093F8170201F062FBE8E705EBC4029288DD
:10029000002AE3D093F81912F2E700BF740D002092
:1002A000CC0300202DE9F04FC4781F2C87B0064600
:1002B0007FD8844BD3F8008098F8749040F25E3277
:1002C0000C2302FB09F103FB0411414491F81812BD
:1002D000013903296DD8DFE811F00400FB00850126
:1002E000CA0102FB09F203FB04234344327893F86A
:1002F00017A293F8193201939DF804308DF811304C
:1003000073788DF810A0BAEB030718BF0127012AF4
:100310006D4D4FEAC40B4FD0042A53D005EB0B02AE
:100320009178D278003118BF0121003218BF012224
:100330008DF814108DF8152009B302B340F25E3227
:1003400002FB09F10C2202FB0412424492F81B0248
:1003500000284ED0DFF874E1019A4FF00A0C0CFB34
:100360000AE10CFB02E2897992798A4228BF0A46A7
:1003700090423ED801238DF815308DF8143005EBEE
:10038000C4040025023405AE2F4614F8023CAA5DD1
:10039000012B00F08980002A00F0868004AB2178D0
:1003A000585D01F067FA012304F8023C0134002D86
:1003B00078D007B0BDE8F08F05EB0B02B1783A4476
:1003C0009170ABE705EB0B02D119D05D60B1CDE9BF
:1003D000023206ABD819897810F8080C01F0B6FA89
:1003E000039A029B0021D15505EB0B023A440021F0
:1003F000E6E740F25E3202FB09F24FF00C0909FB1E
:100400000429C84498F81A1204291DD106AA1744D1
:100410009A4508BF01322D4817F8081C924612F879
:10042000082C0A2606FB010106FB02028979937952
:1004300099422CBF0123002307F8043C34BF012359
:1004400000230AF8043C9AE73278012A20D1CA1E18
:10045000AAEB030318BF0122D3F1000A4AEB030AF7
:10046000012914BF00230AF00103022914BF002050
:1004700007F001000343002908BF012306A90F4428
:10048000134007F8043C83F001038A441340D8E783
:10049000AB4415F834308DF814309BF801308DF8EA
:1004A00015306CE7012570E7012A3FF47FAF002B80
:1004B0003FF47CAF04AB2178585D01F047FA04F8B3
:1004C000027C73E7740D0020CC030020780D00201F
:1004D000834A7078834F0A2303FB0023997940F203
:1004E0005E3303FB09F20C2303FB0423434493F81C
:1004F00021E2E300FD1871452A7934BF4FF0000C6A
:100500004FF0010C012A5CD0BCF1000F59D001233F
:100510002B710225291F18BF0121013D01F008FDA3
:100520006B00029340F25E3303FB09F34FF00C09BA
:1005300009FB043909F50679DFF8B4B1C844E400D1
:100540004FF0000918F8012F002A34D0029B98F8C8
:1005500004501D41EDB215F0030301932BD007EBBE
:10056000090A1AF8041049B111467078039201F093
:10057000EDF94FF000030AF80430039A15F0010575
:1005800019D0019B584871788BF80110012B4FF05E
:10059000000318BF032520F802398BF800508BF8B0
:1005A000022000F03DFB019B012B14BF002000F056
:1005B00001000AF8040009F10109B9F1040FC1D1E1
:1005C000F7E635783B44042D0CBF002202F001020F
:1005D00083F804C01AB1714501D203259AE7002DB2
:1005E00098D1E6E63578012D27D0042D7FF4E1AED1
:1005F0003C4DE700EB191B79012B27D140F25E330C
:1006000003FB09F34FF00C0909FB043437487278F7
:100610004270A0440021418098F819328370022171
:10062000017000F0FDFA20B198F81912707801F00D
:1006300021F93D4400232B71BBE600F077FF294BE5
:1006400043F8340003EBC4042571B2E6022BF0D169
:1006500040F25E3303FB09F34FF00C0909FB04344D
:10066000A044707898F81A1201F070F9E1E77078F8
:100670003678012E17D0042E7FF49BAE194EE5007C
:10068000721952795AB940F25E3202FB09F90C2311
:1006900003FB0494444494F8191201F057F97319B8
:1006A00000221A7185E640F25E3303FB09F34FF036
:1006B0000C0909FB04390B4FC84407EBC40598F833
:1006C000191201F0D7F86B7983F001036B712BB12C
:1006D00000F02CFF47F834002E716AE60223AAE7E7
:1006E000780D0020CC030020CE040020D004002090
:1006F000CC0400202DE9F84FDFF8BC902D4E804649
:100700000024D9F800A09AF874B040F25E3505FBD9
:100710000BF30C2505FB0435554495F81832032BD3
:1007200006D0042B31D00134202CEAD1BDE8F88F5B
:10073000E300F7183A79012AF5D195F81D229AB10C
:10074000B8F1000F10D040F25E3303FB0BFB0C231B
:1007500003FB04B3534493F81A1293F8170201F001
:1007600089F802233B71DEE7F55800F0DFFE40F226
:100770005E3202FB0BF30C2202FB04325244401B9C
:10078000B2F81B328342DED9CDE706EBC4073B79D2
:10079000012BC8D156F834A000F0C8FEB5F81A32C3
:1007A000A0EB0A0083429FBF02233B7100237B71B1
:1007B000B9E700BFCC030020740D00207047000093
:1007C00070B503780D2B044600F02B8161D8062B01
:1007D00000F0F3802DD8022B00F0E08007D8002B2A
:1007E00000F0C280012B00F0D680FF23C2E0042B72
:1007F00000F0DF8040F2D5804378332BF5D86FF0DE
:100800000902C249C2485A4303EB830301EB430187
:1008100002F5027200239A4200F0AB80CD5A0580A7
:10082000CD180A33AD798570D22B00F10300F2D1D7
:100830009FE0092BB74A00F0CF800AD8072B00F0C1
:10084000C480082BD1D1B44B1B6893F8743053701B
:100850008FE00B2B00F0CB8040F2C5804378032B58
:10086000C3D88278032AC0D8AB4E326892F874207D
:100870009A4201D1FFF7DEFCA3786078316840F23C
:100880005E325343763350431944763002F0D6F843
:10089000BCE0852B00F044813BD8812B00F0E08048
:1008A0001AD80E2B00F0D380802B9ED141780329DB
:1008B0009BD88078032898D8E278332A95D840F2DC
:1008C0005E335943342313FB00139349763309688D
:1008D0001344C2F13402FAE0832B00F0FB8040F2B3
:1008E000DF804578032D80D881781F293FF67DAFC2
:1008F00040F25E336B43C1F120020C2003F2162359
:10090000052A10FB0131844B28BF05221B68424396
:10091000DDE0882B00F03C817E4811D8862B00F06A
:100920002981872B7FF461AF6378032B3FF65DAF9E
:1009300040F25E3058430122A11C00F2D33047E060
:100940008A2B00F04F81C0F034818B2B7FF44DAFA8
:100950006378032B3FF649AF40F25E3058430922DB
:10096000A11C00F2CA3033E06A4B06225A70012201
:100970009A702378674A1370022002F075FB0146D3
:10098000002800F044814023624A00210220BDE893
:10099000704002F085BB00F0E9FCEAE700F0EAFCF9
:1009A000E7E7FFF747FC00F007FA054600F00EFF07
:1009B00033E0012001F05EF9DBE7574B1B68D3F809
:1009C0000620544BC3F80120D3E7411C0422062023
:1009D00002F034F8054620E04F4B1B68B3F8723044
:1009E000A2F80130C5E7411C02227220F0E74278EC
:1009F000032A3FF6FAAE484E316891F874109142DE
:100A000001D1FFF717FC607800F060FA3368627874
:100A100093F874309A420546C8D0002D3FF4E5AEF5
:100A2000A7E7D0F8013040F2452293423FF6DDAE11
:100A3000C3F51172023237483849C0F801203B2A09
:100A400028BF3B221944053004F035FE91E72022EF
:100A500000212F4804F03AFE2D4800F095FC88E76D
:100A60004378032B3FF6C1AE817803293FF6BDAE34
:100A7000C07833283FF6B9AE22793B2A3FF6B5AEAF
:100A8000C0F13405AA423FF7B0AE342511FB05F1A1
:100A900040F25E3505FB03131844611D763097E77D
:100AA000407803283FF6A1AEA17833293FF69DAEEA
:100AB00040F25E33434303F5A373C1F1340203EB09
:100AC000810315490F2A28BF0F2209689200194493
:100AD0000F48B9E7407803283FF687AEA378332B59
:100AE0003FF683AEE2780F2A3FF67FAEC3F13401C2
:100AF0008A423FF77AAE40F25E319B0001FB003044
:100B00009200211D00F5A37062E700BF780D002060
:100B1000D5040020D4040020740D00203E6200089B
:100B20004278032A3FF661AE83781F2B3FF65DAE15
:100B3000C17805293FF659AEC3F1200399423FF72A
:100B400054AE354E336893F87430934201D1FFF7B9
:100B500071FBA378E278607803EB430340F25E31E7
:100B60009B0001FB003002EB42029200211D00F2CB
:100B700016208BE66378032B3FF637AE264A1268C1
:100B800040F25E3101FB032393F8D3334370F0E668
:100B9000417803293FF629AE8278332A3FF625AE05
:100BA00040F25E3303FB01211B4B01F296311B68BF
:100BB0008FE6607803283FF618AEA378332B3FF614
:100BC00014AEE2783C2A3FF610AEC3F134018A42FB
:100BD0003FF70BAE40F25E3101FB003000F2963081
:100BE000211DF5E66378032B3FF6FFAD0A4A126834
:100BF00040F25E3101FB032303F2CA331A68C0F8E6
:100C000001205A681B7AC0F805204372B1E64FF004
:100C1000FF3002F077FFAFE6740D00207047000050
:100C200030B5124C2278FAB9114D2968102919D023
:100C3000104B00681B6822700B44013103F00F0356
:100C400029600D4941F8230001EB83050B4B19681E
:100C500091F8743040F25E3000FB0313012293F8E8
:100C6000D333EB70104630BD0022FBE79C0500201B
:100C7000A00500209805002058050020740D0020D4
:100C800038490A782DE9F047F2B9374C2068D8B1D5
:100C90000123364D364FDFF8E4E0DFF8D8800B70E3
:100CA000164640F25E3C90422B680FD1334403F06D
:100CB0000F032B60801B00252E4FDFF8C4802060BF
:100CC0000D70A946AE4223D1BDE8F087D7F800A049
:100CD00013449AF8749003F00F030CFB09A90EEB70
:100CE000830399F8D39393F803A0D14528BFD14645
:100CF00083F80390B9F1000F05D009F1FF3983F8AB
:100D000003900132CFE71B6848F826300136F8E738
:100D100017F82530022B4FEA850409D0032B0ED09B
:100D2000012B0AD13C44A178607800F0A3FD04E0D7
:100D30003C44A178607800F009FE0135C2E73C44EC
:100D40000D486278A37820F80299022188F80010F3
:100D500088F8012088F80230FFF762FF0028ECD005
:100D6000E1E700BF9C050020A005002098050020B9
:100D7000740D0020140500205605002058050020A1
:100D8000540500200A4B0B49D02202FB001110B57C
:100D90000446184604F08FFC40F25E32034602FB24
:100DA00004F019467630BDE8104001F047BE00BFA0
:100DB000060000208464000870B59CB01CAD682259
:100DC000002102A804F082FC254B45F86C3D04226A
:100DD0002946002001F032FE4FF4827304460222BD
:100DE00029460420ADF8043001F028FE0422044016
:100DF0001C49062001F022FEE4B20440682202A948
:100E00000A2001F01BFE022204401749722001F063
:100E100015FE002604400122294674208DF8046046
:100E200001F00CFE01220440294675208DF80420B3
:100E300001F004FE0440F0B2FFF7A4FF0136042ED7
:100E400004EA0004F7D1094B01933246294640F6E3
:100E5000EE5001F0F3FD2040C0B21CB070BD00BFE9
:100E60004C49420A0000002004000020484D4B0A73
:100E7000124808B580210023C2180433D02B82F811
:100E8000D010F9D10E4B0F4A196813600E4A9142E7
:100E90000BD1D3F8EE1D02F5102202F57F729142BC
:100EA00003D19B88B3F5827F06D001F07BF918B996
:100EB000BDE80840FFF780BF08BD00BF0600002066
:100EC000800F0020740D00204C49420A032801D8ED
:100ED000FFF758BF002070477F2894BF4FF4006091
:100EE000002070472DE9F74F01217048704DDFF861
:100EF0000482704F04F02EFE01216F4804F02AFE98
:100F000001214FF4401004F025FE01216B4804F04C
:100F100021FE01216A4804F01DFE0121694804F008
:100F200019FE062004F0C8FC624804F08FFC284635
:100F300004F0A5FC00236B70AB7029460723012445
:100F40005C482C70EB7004F0A1FC5F4D08EB0403CF
:100F5000E2B213F8016C38460123314604F0CBFCB1
:100F6000594805F0C9F80323AB71584B564933F87B
:100F700016302B60564B013453F8260005F07AF8F2
:100F8000082CE3D1DFF84091DFF86CB1DFF86CA1F9
:100F90000027484605F0B0F85AF827803BF817308C
:100FA0002B6001244946404600260193AC716E71C6
:100FB000EC7105F05FF8019B224619464046274434
:100FC00005F0A4F8032FE4D1424D3A482246072108
:100FD00004F038FD404804F047FF284604F098FF2D
:100FE00007236B813D4B6B6002273D4B3A482B60DA
:100FF0002946EC736C73AC732C742E812E736F7452
:1010000004F092FF2146374804F0C2FF052136481C
:1010100004F0C5FF224639462F4804F04BFF214615
:10102000244804F051FC324641F2DF012F4805F01C
:10103000C4F831462D4805F0C7F8224621462B4812
:1010400005F0C7F832463146122005F065F8324601
:1010500031460B2005F060F832463146362005F067
:101060005BF821461348134C04F004FC114804F0CB
:1010700030FC204604F032FC0128FAD00D480D4C1B
:1010800004F030FC204604F032FC0128FAD00121A3
:10109000114804F017FF0121064804F0DCFC144A53
:1010A0001378002BFCD003B0BDE8F08F080044009B
:1010B000A40500200020014016003000010030008F
:1010C000020030000400400038060020C467000819
:1010D000E46700082406002008600240A8050020FC
:1010E0004C200140006002400461024000100040BA
:1010F000B6050020246800089C680008A468000861
:1011000070470000014B33F810007047B80500200D
:10111000F8B5022004F0ECFE01283ED11F4C204E11
:10112000204F022004F0E6FE22781F48C2EBC203E3
:1011300000EB4300002330F8131029B136F81350A8
:101140000139ADB227F811500133072BF3D11749FC
:1011500001320B78D2B202F00700002808BF43F03A
:1011600001030B70207002F001020221104804F00C
:10117000CDFF22780E48C2F34002042104F0C6FFDE
:1011800022780B480821C2F3800204F0BFFF01213E
:101190000848BDE8F84005F00BB8F8BD200600206F
:1011A000A8050020B80500202C680008B60500201E
:1011B000000802400010004010B501210A4805F067
:1011C00014F8012804460DD10146074805F018F827
:1011D0000021054804F0ECFF21460448BDE810401A
:1011E00004F039BC10BD00BF0010004000200140D9
:1011F000BFF34F8F0549064BCA6802F4E062134300
:10120000CB60BFF34F8F00BFFDE700BF00ED00E0F4
:101210000400FA05474A484B1168994210B51BD1A2
:10122000002313604549464A08684C6813605360C0
:101230009360444B4FF0FF32C3F88020C3F8842002
:10124000C3F88820C3F88C20C3F8081C80F30888F2
:1012500080F30988A047FEE7032004F097FF04F01D
:101260001BFC394B39484FF4AB721A60012104F072
:1012700071FC374A1369012143F0030313610846E7
:1012800004F08AFC04F055FC0028FBD00122482120
:101290001046022304F09CFD052004F0B9FD012155
:1012A000022004F079FC192004F032FC01280446E5
:1012B000F9D1002004F096FC002004F0AFFC0420DB
:1012C00004F0A4FC204604F0B1FC022004F0B0FDC0
:1012D00004F0C2FD0228FBD1002004F0A7FC04F0BA
:1012E0005FFA01211B4804F035FC1B48012104F082
:1012F00031FC012004F094FD1A2004F009FC0128BF
:10130000FAD1002004F054FD144A936B43F4001307
:1013100093630C4B124A002183F84D13D36843F0BA
:101320008073D3600F4B1A6842F001021A60596053
:1013300010BD00BFFC970120EFBEADDE00A4FF1F73
:1013400010E000E000E100E0003C02401C00400032
:1013500000700040010030001D003000000004401B
:10136000F0ED00E0001000E072B6FEE708B5FFF710
:101370003FFF000008B5024B024A1A60FFF738FF32
:10138000FC970120EFBEADDE70B5104B104D114C37
:1013900011491A789F2A1A7800EB43064FEA121275
:1013A00094BF3032373272551A7802F00F02092A90
:1013B0001A7803F1010302F00F0294BF3032373282
:1013C0008B423255E5D1182070BD00BFE8F7FF1FF2
:1013D000301000C0311000C0F4F7FF1F002003F0F0
:1013E000E1BB012003F0DEBB014804F00CBF00BFED
:1013F00000000440014804F00DBF00BF000004409D
:101400000121014804F0A6BB0C00300073B5002395
:1014100016460C460546019304F022FB304604F0C4
:1014200027FBA108284604F029FB14F003020BD087
:1014300024F00301294401A804F03DF9019802B009
:10144000BDE8704004F014BB02B070BD70477F2847
:1014500010B5044609D804F0D1FD4FF0804004F0E7
:10146000BDFD042803D104F0D5FD00240CE01420B8
:1014700004F09AFD04F58030C00204F0D3FDC31ED1
:101480005C425C4104F0C6FD204610BD08B59200E8
:1014900003460846D118B1F5802F05D803F1006145
:1014A00004F009F9012008BD0020FCE7F8B500EBC5
:1014B0008203B3F5802F04460F46164615D804F074
:1014C0009DFD04F100640025B54203D104F0A2FDA6
:1014D0000120F8BD204657F8251004F0B9FD032877
:1014E00004F1040403D004F095FD0020F1E7013578
:1014F000EAE700000A4B4FF47A721B68B3FBF2F381
:10150000013BB3F1807F09D2064A5360064BF021BC
:1015100083F823100023936007231360704700BFF4
:10152000A803002010E000E000ED00E0014B186887
:10153000704700BF40060020024A13680133136061
:10154000704700BF40060020214B2DE9F74FB3F84C
:101550000090204B204DB3F80080204BB5F800B030
:10156000B3F800A01E4E1F4F0446032C02D903B04F
:10157000BDE8F08F022C0BD0032C16D0012C23D108
:10158000D04521D0134AA3F800800223214606E06B
:10159000D94519D00E4AA5F80090234621460120CE
:1015A00003B0BDE8F04F01F07BBD05220C490D48AA
:1015B000019304F071F8019B30B133683B603379DB
:1015C0003B71074A0523E1E70134E4B2CDE700BFF0
:1015D000440600208E060020680600208C060020AD
:1015E000620600208606002070470000224B30B5BE
:1015F00033F8104074B3852828D8832831D20228C4
:1016000028D37A281D4B32D81D4A107800218842F1
:1016100021D806280BD1D97899701979D9705979C0
:10162000197199795971D9799971052111701178C8
:10163000481C194410708C7003EBD4030122197AF2
:1016400004F00704A2400A431A7203E09A280BD957
:101650009F280BD930BD5D18AD78A542ECD0013183
:10166000D5E7084B1C80F5E7074BFBE7074B1A78DB
:1016700022431A70EEE700BFB0680008460600205B
:10168000670600208E060020440600206206002027
:10169000234B33F8103070B533B3852820D8832816
:1016A0002FD2022820D37A281E4A25D81E4D2C7806
:1016B00000218C4209D95018807898421AD1881C90
:1016C0001044042911D9013C2C7002EBD3020121F2
:1016D00003F007039940137A23EA0103137203E02E
:1016E0009A2815D99F2815D970BD467800F8016B46
:1016F0000131E6E70131DCE7117821EA03031370D9
:10170000F2E70A4A11889942EED100231380EBE7F1
:10171000074AF7E707490A7822EA03030B70E3E771
:10172000B068000846060020670600208E060020EC
:10173000440600206206002008B501F02DFF08B124
:1017400001F032FF002001F08FFC0146F8B11C22AD
:101750001449154803F0A0FF78B1124B124A03F167
:101760001C0153F8040B42F8040B8B42F9D1002101
:101770001C230C4A084601F093FC012001F074FC84
:10178000014648B10120BDE80840FFF7DDBE4FF03B
:10179000FF3002F0B7F9D5E74FF0FF3002F0B2F9B1
:1017A000EBE700BF460600206A06002000207047D5
:1017B000022802D11846FFF703B87047012804D168
:1017C00008780130C0B2FFF7BFBE7047F8B5D0222D
:1017D00000211548144E03F079FF144B1A6892F853
:1017E000743040F25E3101FB03233427002293F86A
:1017F0001802013290B193F8161203290ED893F80B
:101800001752332D0AD807FB0161D4B201284C5579
:1018100004D193F81902332898BF0C54202A03F1FD
:101820000C03E4D1F8BD00BFF8060020740D0020C1
:10183000FFF7CCBF13B503288DF8070018D8FEF7C3
:10184000F9FC01220DF10701742001F0F7F80446BC
:1018500048B19DF8073033B101220DF10701752021
:1018600001F0ECF80446FFF7B1FF204602B010BDCE
:101870000024FAE708B549B1CF2908D8C82935D2DC
:10188000022903D39F2920D9C02925D208BDD229F6
:101890003FD012D8D0292FD0D129F7D1264B274AB3
:1018A0001B8811783BB1B3FA83F3C3F11F03DBB29A
:1018B0008B4208BF00231370E8E7D32933D0D42923
:1018C000E4D1BDE80840FFF755BD0846FFF78EFE9E
:1018D0001B4B01221A70D9E7174A012301F00701B7
:1018E00003FA01F1138819431180CFE701F00700D3
:1018F000BDE80840FFF79EBF4109124A012300F0EE
:101900001F0003FA00F052F82130434042F8213022
:10191000BCE70D4B1B6893F8742012B993F875005F
:10192000E6E70020E4E7084B1B6893F874000130F9
:1019300000F00300DCE700BFE4070020CC07002034
:10194000E6070020D0070020740D002008B539B14B
:10195000022905D39F2904D9A1F1C003072B07D978
:1019600008BD0846FFF794FE064B01221A70F7E700
:10197000054B01F0070101208840198821EA000188
:101980001980EDE7E6070020E40700202DE9F04F7D
:10199000914B87B01D880393002D45D0B5FA85F58E
:1019A000C5F11F05EDB28D4BDFF858B28C4F3422D4
:1019B00005FB02330024029326464FEA541804F034
:1019C0001F095BF8283023FA09F3DAB201923A686A
:1019D00092F87210B5FA85FAC9074FEA5A1A02D579
:1019E000BAF1000F23D17F4951F8281021FA09F1EB
:1019F00011EA0A0F43D00134342CDED17A4C002E88
:101A000000F0E3803046FEF775FEFFF78FFD2060A3
:101A1000764C23781BB1FFF78FFE0023237007B0AD
:101A2000BDE8F04FFFF72CB9714B1D78BBE792F87A
:101A3000740040F25E3101FB0020204490F89603D0
:101A400058B9386890F8741040F25E3C0CFB010104
:101A500091F8D213CA07C6D4CDE7E0B2CDE904317C
:101A600001F080F93A68059992F87400049B01FB33
:101A7000002191F8D21311F0020FE2D0BBE75D49CB
:101A8000019A4FF00A0A0AFB041AD0079AF80910C3
:101A90006BD4002969D0039B1B8801933B6893F8A2
:101AA00074E040F25E3CE0B229460CFB0EFC4A1C9E
:101AB00040D14F4A40F25E31127801FB0EFE3421D4
:101AC00001FB02EE7344234493F87620029B1B5DD6
:101AD000002B3ED0484963544849013B48704FF0C1
:101AE000010C08468A70CB7081F800C00193FEF7A4
:101AF000D9FB3A68019B92F8740040F25E31414391
:101B00000C2000FB03131A4492F81832032B18BF61
:101B100046F001065BF828209AF8091022FA09F32A
:101B200003F001034B4003FA09F989EA02024BF87A
:101B3000282060E7019A0A41D20708D5342202FB27
:101B400001C21A44224492F87620012ABED10139FA
:101B5000ADE72B4B0192E2541146FFF78BFE019A41
:101B6000002A18BF46F00106D4E701291DD0DB0783
:101B70001BD5DFF884C0224A14F80C30A15CE0B217
:101B80007BB1002204F80C201C4A4FF0040C013BEE
:101B9000507082F800C09170D3701046FEF782FB3F
:101BA000B8E7A354FFF7D2FEB4E70029B2D0124B36
:101BB000E35C002BAED0124A1048A25C44700021B6
:101BC000013B01708270C370E8E72568FFF7AEFC47
:101BD00085427FF417AF1BE7E4070020F8060020DA
:101BE000740D0020D0070020E0070020E607002049
:101BF000CC070020780D002090060020C8070020A8
:101C0000C4060020D807002007B5FFF703FBFFF745
:101C100071FCFFF7F5FBFFF719FC00F089FEFFF7F9
:101C200027F9FFF75FF900F0A3F8FFF7DDFCFEF7F7
:101C3000F5FFFEF7FDFA01F094F8FFF7F9FDFEF766
:101C4000BDFD0B4B01A91B88ADF80430012001F04C
:101C5000C3FC00214FF0FF3001F054FFFFF750FAB2
:101C600000F08AF8FFF792FE01F0DEF8F1E700BF1E
:101C70003C6200082DE9F0439BB048B16822002186
:101C8000684603F023FD682269460A2000F0D6FE6C
:101C9000344C354D27680022FE88B7F808E02B4603
:101CA00040F6FF7C1046111D07EB41011E805E804F
:101CB0004988987171452CBF711806EB0E0161457A
:101CC00002F10102A8BF6146342A9980D8711872C6
:101CD000587203F10A03E6D1FFF728FC40F6FF77BC
:101CE0000646FFF723FC801BB0F5FA7F06D3FFF70B
:101CF0001DFC1E4B18601BB0BDE8F083FFF700FA17
:101D0000A8464FF000095FFA89F0FFF7FBF9B8F831
:101D10000030B8F80220C3EB03131844000983B263
:101D2000043090422268B8BFA8F80230A8F800300A
:101D300009F104001189B8F8023002EB400209F100
:101D40000109528891422CBF5B189B18BB42A8BF67
:101D50003B46B9F1340FA8F8043008F10A08D2D193
:101D6000BFE700BF740D0020780D0020E8070020B9
:101D70000020FFF77FBF00002DE9F04F674FDFF82D
:101D8000A8819DB03C460025C146E8B2FFF7BAF9EC
:101D9000B4F800B0A388D8F80060CBEB0B1B8344E9
:101DA0004FEA1B1B04331FFA8BF25B4596F874A0B5
:101DB000228006DAA2800192FFF7B8FB584B019A05
:101DC00018606188A388914233D2994231D29342FC
:101DD00031D9ABEB010B5B1ACBEB8B2BBBFBF3FBD2
:101DE000504B13F80B30DFF844E1A37140F25E3240
:101DF00005F1340C02FB0AF24FEA551B02EB8C0290
:101E000032445EF82BE092F8771005F01F002EFAAE
:101E100000F000F00100002908BF012068B1002196
:101E2000217292F876209A428CBF002301236372BC
:101E30001FE00023D7E7FF23D5E792F879E0BEF152
:101E4000000F01D192F8760040F25E3202FB0AFAEE
:101E50000AEB8C0C664494F808C096F87820002AA7
:101E600008BF0A46BCF1010F3CD034D3BCF1020FCD
:101E70004BD00135342D04F10A0486D1D9F8003055
:101E800093F872309B0723D5254C2568FFF74EFB4E
:101E900040F6B733401B98421AD900231846BA8837
:101EA00079888A422BBF521A02AA02A922F813008B
:101EB00028BF21F813200133342B07F10A07EED194
:101EC000682202A90A2000F0B9FDFFF72FFB20606D
:101ED0001DB0BDE8F08F96F876209A42C9D2E37122
:101EE000012303E0984203D3E371002323729EE7AA
:101EF000E1791A448A4204DAE3710223237200234F
:101F000095E79942B5D2E371B3E79842ECD2E27912
:101F100011449942E3DB9A42ABD9F4E7780D0020F3
:101F2000E8070020B06A0008740D0020EC070020CC
:101F300030B5084A440900F01F0052F8245025FA31
:101F400000F303F0010359408140694042F8241036
:101F500030BD00BFEC07002003681970036801332F
:101F60000360704770B505460C4600680968164660
:101F700003F0A1FB2B6833442B60226832442260BB
:101F800070BD07B5CDE900108A8840F203139A426C
:101F900017D17222694601A8FFF7E4FF009B019A5E
:101FA00033F8021B41F0040122F8021B01A8CDE91D
:101FB000003269460222FFF7D5FF012003B05DF829
:101FC00004FB0020FAE707B5CDE900108B88B3F5D4
:101FD000817F17D17222694601A8FFF7C3FF009BDA
:101FE000019A33F8021B41F0020122F8021B01A8FA
:101FF000CDE9003269460222FFF7B4FF012003B0A9
:102000005DF804FB0020FAE707B5019102A901A8D9
:1020100041F8082D40F25E32FFF7A4FF012003B023
:102020005DF804FB07B5CDE900108B88B3F5807F20
:1020300012D10A22694601A8FFF794FF019B0022F2
:1020400023F8022B01A8022269460193FFF78AFFB9
:10205000012003B05DF804FB0020FAE707B5CDE9E5
:1020600000108A8840F201139A4216D10A2269466A
:1020700001A8FFF777FF68220021019803F026FBF3
:10208000019B042268330DEB020069460193FFF7C0
:1020900069FF012003B05DF804FB0020FAE707B5F3
:1020A000009102A9684641F8042D40F25E32FFF724
:1020B00059FF012003B05DF804FB07B5009102A9A8
:1020C000684641F8042D40F25E32FFF74BFF0120D5
:1020D00003B05DF804FB37B502AD0C4645F8082D9A
:1020E00001914FF4D072294601A8FFF73BFF21462A
:1020F00004F1D0020B78A3F1700001284BD806330D
:102100000B7001319142F5D1019C4FF4C072294608
:1021100001A8FFF727FF234604F5C0720021987835
:10212000032808BFD9710C339342F8D1342200211F
:10213000019803F0CBFA019B042134330DEB01002D
:102140000193FFF709FF01A81421FFF705FF01A87C
:102150005521FFF701FF01A85F21FFF7FDFE01A850
:10216000A521FFF7F9FE01A8AA21FFF7F5FE01A8B6
:10217000FF21FFF7F1FE01A8FF21FFF7EDFE01A807
:102180000921FFF7E9FE01A801222946FFF7EAFE2F
:10219000012003B030BDA3F172002428B1D8093367
:1021A000AEE700003A4B2DE9F04F1968394B0A6849
:1021B000ADF5DF5D9A4287B005D000200DF5DF5DFB
:1021C00007B0BDE8F08F8B88029340F6F25205A865
:1021D00003F071FADFF8C0A0012500244FF01209C6
:1021E0002D4B029909FB05331A88ADF8042092B2F1
:1021F0008A4213D940F6F25605AAD3F80A3006FBF4
:10220000042B84F0010406FB0426DBB909FB05A3BB
:10221000D3F80E30E3B9BDF80430B3800135052D95
:10222000DED105AB40F6F25202FB043144F64853CE
:10223000A1F8EE3D40F64B23A1F8F03D002000F060
:10224000FDFBBBE75946304698470028DED1B4E78E
:1022500005F1FF38002709FB08A8D8F80210D8F8C4
:102260000620039309FB05A007FB0212D0F8061015
:10227000D0F8020007FB01015A443144F8B29847F4
:1022800000289AD00137042F039BE6D1C3E700BF93
:10229000740D00204C49420AB06E00080048704797
:1022A0003B6F000802289ABF024B53F82000002021
:1022B000704700BF0C6F0008964B97481B6893F857
:1022C000723003F00102002A14BF82215B212DE944
:1022D000F04F81704FF0A00114BF04220322C1719E
:1022E0004527FA21092402264FF0070C4FF0040875
:1022F0004FF0210E4FF0220A13F0040F02714FF03D
:1023000000034FF0010201724FF0110B4FF0030177
:1023100047764FF081094FF005070470427144720F
:102320004273C2730274847480F814B04275C2752B
:1023300080F818A04670C370837180F80A80C37259
:1023400003738173437480F813E08375837680F898
:102350001BC0077780F81D9080F82DB06FF0780BC8
:1023600014BF012508254FF0400980F832B06FF006
:102370007D0B80F8224080F8242080F8262080F809
:102380002B4080F82E2080F8302080F831A080F893
:1023900036B080F83B40817780F81F9080F820307D
:1023A00080F8215080F8238080F8253080F82710AD
:1023B00080F8283080F8293080F82A3080F82CE026
:1023C00080F82F3080F8333080F834C080F83570D2
:1023D00080F8371080F8389080F8393080F83A501B
:1023E00080F83C8080F83D604FF0110B80F83E3063
:1023F00080F8444080F84AA080F84BA080F85B4009
:102400004FF0830AFF2480F8472080F8492080F8A5
:102410004F2080F83F6080F8401080F8413080F80D
:10242000423080F8433080F845E080F846B080F8CC
:10243000483080F84C3080F84DC080F84E7080F8FD
:10244000501080F8519080F8523080F8535080F846
:1024500054C080F8557080F856A080F8571080F866
:10246000589080F8593080F85A5080F85C8080F895
:102470005D1080F85E3080F85F6080F860405D2419
:1024800080F8614080F86220102480F8672080F88E
:102490006820242280F8644080F8664080F8692033
:1024A0001424842280F86A2080F86B4080F876201B
:1024B0001324202280F8633080F865E080F86C10E7
:1024C00080F86D3080F86E1080F86F4080F8706092
:1024D00080F8713080F8721080F8733080F874C022
:1024E00080F8757080F8771080F8782080F879305F
:1024F00080F87A5080F87BC080F87C7080F87D602E
:1025000080F87E1080F87F2080F8803080F881503D
:10251000BDE8F08F740D0020F407002000487047DC
:102520004D6F0008964B97481B6893F8723003F084
:102530000102002A14BF82215B212DE9F04F817036
:102540004FF0A00114BF04220322C1714525FA21D6
:10255000092405274FF004084FF0210E4FF0220AFE
:1025600013F0040F02714FF000034FF001020172EB
:102570004FF0110B4FF0030145764FF081094FF0FA
:1025800007050470427144724273C273027484740A
:1025900080F814B04275C27580F818A080F81D90BC
:1025A000C370837180F80A80C372037381734374AC
:1025B00080F813E083758376C5760777817780F896
:1025C0002DB06FF0780B14BF012608264FF0020CD7
:1025D0004FF0400980F832B06FF07D0B80F8224058
:1025E00080F8242080F8262080F82B4080F82E20C8
:1025F00080F8302080F831A080F836B080F83B4079
:1026000080F81F9080F8203080F8216080F82380C7
:1026100080F8253080F8271080F8283080F829309D
:1026200080F82A3080F82CE080F82F3080F83330A2
:1026300080F8345080F8357080F8371080F8389082
:1026400080F8393080F83A6080F83C8080F83DC0EE
:1026500080F83E304FF0110B80F83FC080F84440C6
:1026600080F84AA080F84BA080F85B404FF0830AC6
:10267000FF2480F8472080F8492080F84F2080F818
:10268000401080F8413080F8423080F8433080F8C4
:1026900045E080F846B080F8483080F84C3080F84B
:1026A0004D5080F84E7080F8501080F8519080F8AE
:1026B000523080F8536080F8545080F8557080F89C
:1026C00056A080F8571080F8589080F8593080F85C
:1026D0005A6080F85C8080F85D1080F85E3080F889
:1026E0005FC080F860405D2480F8614080F862201F
:1026F000102480F8672080F86820242280F8644045
:1027000080F8664080F869201424842280F86A20CA
:1027100080F86B4080F876201324202280F8633004
:1027200080F865E080F86C1080F86D3080F86E10ED
:1027300080F86F4080F870C080F8713080F87210B7
:1027400080F8733080F8745080F8757080F87710D6
:1027500080F8782080F8793080F87A6080F87B50B3
:1027600080F87C7080F87DC080F87E1080F87F2033
:1027700080F8803080F881604570BDE8F08F00BF40
:10278000740D00207608002010B588B0B0B1032881
:1027900021D02DD8174B53F820402046FDF740FD9F
:1027A0001549202803464FF0000228BF20239A42F3
:1027B00009D0A05C013221F81200F8E70F4A0E4B55
:1027C00012885A80012301330B485B0043F44073A5
:1027D000038008B010BD6846FEF7D6FD064A002308
:1027E0008342F0D01DF80310013322F81310F7E7ED
:1027F0000020EEE7F8700008F8080020186F0008C5
:10280000004870471A6F0008012910B4144610D10F
:10281000137803F06003402B0ED15378012B0BD1BA
:102820009388072B08D12146B223044A10BC01F03B
:102830008FBC012010BC70470020FBE7237000080C
:10284000074A00234FF0FF3142F823100133B3F55C
:10285000006FF9D1034B42F204021A60704700BFC7
:10286000800F002044090020164B13B51C687F2CF4
:1028700020D9154C154920684FF40062FEF716FE6A
:1028800090B100224FF400511048FEF7BFFD02A99D
:10289000012241F8040D206800F50050FEF706FE05
:1028A000002814BF02200020094B42F204021A60E3
:1028B00002B010BD2046FEF7CAFD0028F8D0013452
:1028C000D5E700BF400900203C090020800F002010
:1028D00044090020044B1B68B3F5903F01D3FFF778
:1028E000C3BF0120704700BF4409002013B5094B46
:1028F000094C1B6802A9012241F8040D2068184404
:10290000FEF7D4FD20B1236804332360FFF7E2FF14
:1029100002B010BD3C0900204409002008B5FFF7B3
:102920008FFFFFF7A1FF003018BF012008BD000096
:102930002DE9FF413C4E8025002415F1FF3507D3DA
:102940002846FEF7C9FA0444B442F6D9374B1D6055
:10295000374D384EC4F580202860FFF771FF4FF4E3
:1029600000623449FEF792FD48B9FFF769FFFFF7AF
:10297000D5FF08B9FEF7F8FC04B0BDE8F0810022ED
:102980004FF400513046FEF741FD0446286801220D
:1029900002A900F50050FEF779FD0028E5D0029B62
:1029A0009C42E2D1204F42F204042868012201A98E
:1029B0002044FEF76BFD30B3019B5A1C22D0C3F3B9
:1029C00042320293C3F30C031344B3F5005F04F1E6
:1029D000040820DC022A1CD92868012203A94044EB
:1029E000FEF754FDD0B10834BDF808009DF8092069
:1029F000C0F30C0052090DF10A01304402F05BFEF5
:102A0000BC42D2D901200C4B1C6048B9FFF72CFF07
:102A1000AFE74446E8E744460020F4E74446F2E7DF
:102A2000FFF758FFA5E700BFFF1F01004009002086
:102A30003C090020800F0020440900208318B3F5D2
:102A4000005F2DE9F3410546144650D8294B0E4648
:102A5000002C3FD03778EA5C974201F1010104F184
:102A6000FF3C05EB03002FD0631EF15CC25C91427A
:102A70002DD02246314602F01EFE4FF0000843469C
:102A8000062C65F30C032746CDE9008828BF0627EE
:102A9000ADF80030C3F3072367F347133A463146D6
:102AA0000DF102008DF8013002F005FE0098FFF7ED
:102AB0001DFF012815D1022C0ED8E41B3D443E44D5
:102AC000DDD1FFF707FF0CE001356446BFE71C4688
:102AD000002BC9D1012007E00198FFF707FF01286B
:102AE000EBD0003018BF012002B0BDE8F08100201B
:102AF000FAE700BF800F0020A0F580439BB2B3F53A
:102B0000A04F25BF00F5E04083B28020C0208201A5
:102B100002F5806292B2934222BF203080B29B1AAB
:102B20004FEA401202F5807228BF9BB292B29342E4
:102B300022BF103080B29B1A4FEA001202F140020D
:102B400028BF9BB292B2934222BF083080B29B1A38
:102B50004FEAC00202F1100228BF9BB292B2934228
:102B600022BF043080B29B1A4FEA800202F10402B5
:102B700028BF9BB292B2934222BF023080B29B1A0E
:102B80004FEA400202F1010228BF9BB292B2934287
:102B900024BF013080B27047B0F1804F2CBF4FF49A
:102BA000004300234FEAC33228BF00F1404002F146
:102BB0008052904224BF03F58043801A9A0302F1A9
:102BC0008062904224BF03F50053801A5A0302F139
:102BD0008072904224BF03F58053801A1A0302F5D5
:102BE0008002904224BF03F50063801ADA0202F5E6
:102BF0008012904224BF03F58063801A9A0202F586
:102C00008022904224BF03F50073801A5A0202F515
:102C10008032904224BF03F58073801A1A0202F5B5
:102C20008042904224BF8033801ADA0102F580523C
:102C3000904224BF4033801A9A0102F5806290428C
:102C400024BF2033801A5A0102F58072904224BFBB
:102C50001033801A1A014032904224BF0833801A80
:102C6000DA001032904224BF0433801A9A000432F2
:102C7000904224BF0233801A5A000132904228BF8A
:102C8000013318467047000070B51D4B1C6894F85E
:102C9000742040F25E33534303F2CA33E21895794D
:102CA000854234BF012500250D7024D3E35C8342A7
:102CB00023D2937883421AD21379834219D293791B
:102CC00083422CBF0223032319B24C001319023490
:102CD000161912F811505B787178125DC91A401BF1
:102CE0004843521B90FBF2F01844C0B270BD002361
:102CF000EAE70123E8E7FF20F8E70020F6E700BF56
:102D0000740D0020704701207047012070470000BB
:102D100013B54B79FF2B02D0002002B010BD8B7988
:102D20005D2BF9D1CB79012BF6D10B780A79CC1830
:102D3000C95C084B0193084B00932144032300F026
:102D400015FE28B9054B1B68DB07E5D500BEE4E797
:102D50002720E2E75C0900205D090020F0ED00E09B
:102D6000704770472DE9F041294B1A6892F874308A
:102D700040F25E3101FB0323034493F896331BB109
:102D80000F2B03D9192B33D9BDE8F0814509214C0C
:102D9000214A54F8256000F01F0726FA07FE0A2191
:102DA0005FFA8EF801FB002018F0010F08F0010C0B
:102DB000427A0FD172B11948DFF864E041883EF8D9
:102DC00013300B43438082EA0C02BA40724044F84D
:102DD0002520D9E7012AF6D01EF0010FF3D00F49C4
:102DE0000F4830F813004B8823EA00034B80EAE7D2
:102DF000094A0C490A24103B04FB0020827931F86F
:102E00001300824238BF024621F81320BCE700BFFE
:102E1000740D002060090020780D00207803002048
:102E200024710008480900202DE9F04F89B00DF108
:102E30002009002409F8094D804F814D387C49460E
:102E4000FFF722FF49462871B87CFFF71DFF7D4A36
:102E500068711168069491F87430079406AE40F2D8
:102E60005E3000FB031393F8D213CDE901522346E1
:102E7000754CC1F3C001E218185D52781038103A51
:102E800037F8100037F81220002900F0C080824285
:102E900038BF0246F2520233082BECD14FF0000B40
:102EA0004FF0FF0A06EB0B0336F80B505C880093DB
:102EB00004FB04F005FB0500FFF76EFE0146002849
:102EC00051D0A54200F2A980C5EB0528B8FBF4F863
:102ED000C0F0A680C4EB0422B2FBF5F202FB02F0C4
:102EE00008FB08000392FFF757FEC1EB0121B1FB7D
:102EF000F0F04946C0B2FFF7C7FE9DF81710039ADD
:102F0000002900F08F80002D18BFFF25002C18BF6E
:102F1000FF24029B196891F8742040F25E3303FB92
:102F2000021292F8D223530700F18580E4B24FF6E3
:102F3000016104FB04F0A1EB500080B2FFF7DCFD5F
:102F4000EDB268436D4390FBFAF0C0B226F80B0077
:102F5000A1EB550080B2FFF7CFFD444394FBFAF498
:102F6000E4B2009B5C800BF1040BBBF1080F99D11C
:102F7000354D00246300E91836F81420487815F818
:102F800014101038103937F8100037F81110884233
:102F900001994FEAC2120B4404F1010498BF524256
:102FA000042CDA80E6D100F0EFFA044600F0F4FADF
:102FB0002CB320BB254D297809B300F059FD0446F8
:102FC000E8B9142222491E4802F066FBB8B12978FC
:102FD000204600F0FFFC1423194A2978204600F00F
:102FE00015FD2978204600F003FD154B184A03F122
:102FF000140153F8040B42F8040B8B42F9D10F482B
:103000001422002109B0BDE8F04F02F05FBB12B2FC
:10301000121A002AB8BF52423CE74FF0FF0859E7A6
:10302000FF225BE708FB00F500FB02F4B5FBFAF5B5
:10303000B4FBFAF46DE726F80B5092E7480900203C
:1030400078030020740D00201C7100085C0900202A
:103050006403002001230370004870474471000896
:10306000704701207047704738B50C4A0C2303FBAA
:103070000020447800F088FA054600F08DFA55B13A
:1030800048B92CB1214600F0F3FC80F00100C4B235
:1030900004F0010038BD0024FAE700BFA80B0020AF
:1030A00002282DE9F0470546894690461C4639D846
:1030B0001E4F0C2303FB00730020597800F08AFC9C
:1030C00080B31B4AC02303FB05264036B9F1000F2D
:1030D0001BD003FB052383F840904CB1B8F1000FDF
:1030E00020D03F2C1ED822464146701C02F0E3FA45
:1030F0000134A4B20C2303FB0575324623466978DC
:103100000020BDE8F04700F081BC002CF2D0B8F1FF
:10311000000F07D0402C05D822464146304602F029
:10312000CAFAE7E70020BDE8F08700BFA80B00203F
:10313000680900200120704724220021014802F084
:10314000C5BA00BFA80B00200020FFF7F5BF0000A4
:103150002DE9F34113464A79032A80460E4604D0EE
:103160000025284602B0BDE8F0810A79C2EBC2050D
:103170001235ADB29D4210D8224C677847B1637BBF
:1031800023B1637E4BB91834022701E00C340127C8
:103190003378F1184878212805D01B4B1B68DA07D3
:1031A000DED500BEDCE7A160F05C631C0193A31CCC
:1031B000009301440323404600F0D8FB0028ECD0E4
:1031C000B379A178012B04BFF379E3700123A371D4
:1031D000B3782370A368B3F80730A3800029C0D068
:1031E0000A4AC02303FB072280324023404600F0F6
:1031F0000DFC0028B5D1044B1B68DB07B1D500BE20
:10320000AFE700BFA80B0020F0ED00E06809002048
:1032100013782DE9F341164603F01F02012A804678
:103220000C4601D0002438E0774FB1883878C9B215
:10323000884220D0387B88421FD03A7E8A42F1D122
:10324000022513F060032CD1012C7BD17378062B5F
:10325000E8D173881B0A212B11D10C2202FB0575C2
:10326000AA68002ADED013783146404602B0BDE895
:10327000F04100F06DBF0025E3E71546E1E7222BA2
:10328000D0D12846FFF70EF80C2202FB0575024646
:10329000AB883146404600F05BFF204602B0BDE8F7
:1032A000F081202BBED17378013B0A2BBAD801A242
:1032B00052F823F0E1320008CB330008DB3300087A
:1032C0002532000825320008253200082532000882
:1032D0002532000849330008A5330008EB33000805
:1032E000012C2FD1F3887188DFF824E1402B05EB06
:1032F000450C4FEA11224FEA8C1C184628BF40208B
:1033000011F0FF010EEB0C0714D0012B12D901387C
:103310000EF80C107B1C80B200902846FEF746FA8F
:10332000204483B24BB9394A1268D3077FF57AAF8C
:1033300000BE77E73B460024EEE73A46314640467A
:1033400000F006FF0124A8E7012C09D1F388402BE7
:103350003FF668AF2E4905EB450501EB851298E76E
:10336000032CEFD17188F688294F402E05EB4504D8
:103370004FEA11224FEA8414304628BF402011F052
:10338000FF0107EB040308D0012E06D93C5D8C42F7
:1033900002BF00F1FF30013380B200902846FEF7F3
:1033A00007FACFE7012CCDD171880C2202FB0577FB
:1033B000090AF9712846FFF754FE00283FF432AF9E
:1033C0003146404600F0ACFEBCE7012CBAD10C22DD
:1033D00002FB0572234607325BE7012CB2D10C22B7
:1033E00002FB05722346063253E7012CE8D0032C7A
:1033F000A8D171880C2202FB0577C9B2B9712846A1
:10340000FFF72EFE9EE700BFA80B0020F0ED00E0C6
:10341000680900202DE9F341274C8C4607461146E8
:103420000026A046A27894F801E06245F0B230D0C0
:10343000F4452DD00136032E04F10C04F2D11F4BBC
:103440001B68DB0700D500BE002032E022460121C8
:10345000FFF709FE2CE080352C44A1B9009302222D
:103460002346FEF7A5F90C2303FB068622464023DC
:10347000B178384600F0CAFAD8B9104B1B68DA07A1
:10348000E2D500BE15E022460221FFF7ECFDEAE797
:10349000E646C025E6459BB205FB06F5084CDAD1A9
:1034A00040352C440029D1D11A462146FEF786F931
:1034B000012002B0BDE8F081A80B0020F0ED00E093
:1034C000680900202DE9F041194D1A4FDFF8788086
:1034D0000646002429784A1CE3B2D2B29A4210D898
:1034E00034220021144802F0F1F81022FF21134881
:1034F00002F0ECF81022FF211148BDE8F04102F083
:10350000E5B899420CD9D8F80020242101FB032307
:1035100043B90C4B1B68DB0700D500BEBDE8F0814A
:10352000F7D13B46DB68304698470134D2E700BF0D
:10353000D00B002068710008D10B0020D50B0020B3
:10354000E50B0020F0ED00E0CC0B0020044B1B78D5
:1035500010B1184601F05AB9184601F06DB900BF14
:103560009C03002070B50C4605461646086800F01E
:103570002FFE2368324628460121BDE870401847D7
:103580007047704770477047024B5878003018BF3B
:1035900001207047D10B0020024B1878C0F3800047
:1035A000704700BFD10B002008B5094B1878C0F355
:1035B000800048B11B7803F01803182B05D1054B88
:1035C000187801F053F9012008BD0020FCE700BF86
:1035D000D10B00209C0300202DE9F84F2B4E3378AF
:1035E000FF2B074689464ED141B9294B1B68DA07A4
:1035F00000D500BE00242046BDE8F88F342200210B
:10360000244D254802F062F8244B281D00241C702C
:1036100002F019F8224B1D60224D2846FFF71AFDD3
:103620002A78214BFF2A1860984627D1184B1B682F
:10363000DB07DFD500BEDEE799421CD9D8F80020B1
:103640000BFB0323002BD0D05B680134002BCCD0C4
:10365000984729784A1CE3B2D2B29A42ECD849463C
:103660003846377001F04AF904460028DED0384663
:1036700001F0CCF8BFE7B8D15346E5E7DFF82CA05E
:103680004FF0240BE5E70124B5E700BF9C030020C1
:10369000F0ED00E08C030020D10B00200C0C00208A
:1036A000080C0020D00B0020CC0B00206871000813
:1036B0002DE9F0434378023B85B005460E46052BC5
:1036C00016D8DFE813F00600AA002A003200C10075
:1036D000C6007F4B1A786FF300021A701A78002127
:1036E0006FF341021A7059701A7861F382021A70EE
:1036F000784B1C6816B92368304698472946201D28
:1037000001F078FF074616B9236801209847002F7B
:1037100072D032466978287893E06D4B1A78D707D3
:103720006FD51A7842F00402E1E7694A1378DC07A2
:1037300067D513786FF382031370D9E7994263D981
:10374000D9F80020242101FB0323002B5ED1013492
:1037500039784A1CE3B2D2B29A42EFD85C4C237853
:10376000580727D523786FF3820323700023CDF801
:103770000630CDF80A30ADF80E302B788DF80430D5
:1037800005238DF80530534B1F6816B93B6830464A
:10379000984701A9381D01F02DFF804616B93B68F6
:1037A00001209847B8F1000F3ED14B4B1B68D90759
:1037B00000D500BEE378DA0723D50023CDF8063024
:1037C000CDF80A30ADF80E302B788DF80430032395
:1037D0008DF805306B6802933E4B1C6816B9236860
:1037E0003046984701A9201D01F004FF054616B98F
:1037F000236801209847FDB9374B1B68DB0700D5CC
:1038000000BE05B0BDE8F083A1D143461B6A002B82
:103810009DD069682878984799E700242F4FDFF8F2
:10382000C880DFF8C09093E732469DF805109DF8F8
:103830000400FFF7A5FEBDE79DF805109DF8040004
:103840003246FFF79DFEDCE7254A13780133DBB2F1
:1038500072E7017911F00F0C3FF44AAF1C4C1F4A7C
:103860004FEA4C0CC80904EB0C03034412781B7D8F
:10387000934229D21B4A126803EBC30312EB830362
:103880003FF436AFDF69002F3FF432AF64440444A5
:103890006A7994F824306FF3000384F8243094F8A4
:1038A00024306FF3820384F824302878AB68203406
:1038B000B8470028A5D1237943F001032371237968
:1038C00043F00403237113E77FF412AF064BD9E7EB
:1038D000D10B0020080C0020F0ED00E0D00B002000
:1038E0000C0C0020CC0B00206871000810B5054CB2
:1038F00018B963680BB9236898476368013363603C
:1039000010BD00BFA0030020054A536833B1013B3E
:10391000536018B913B9136801201847704700BFE6
:10392000A003002038B58B7803F00F03072B0C465B
:1039300006D90B4B1B68DB0700D500BE002038BD45
:10394000084B1D78084B00229978204601F012FCA4
:103950000028EED021462846BDE8384001F03EB8A8
:10396000F0ED00E09C030020D10B00202DE9F04792
:10397000DDE9085680460C4691469A460027B9452F
:1039800001DC01200CE06378052B04D1E17801F023
:103990000301514508D00E4B1B68DA0702D4002002
:1039A000BDE8F08700BEFAE721464046FFF7BAFFC0
:1039B00028B9074B1B68DB07F1D500BEF0E7A178FB
:1039C000CB0914BF31702970237801371C44D6E726
:1039D000F0ED00E0CB0901F00F00243303EB4003CE
:1039E00002480021184401F09DBB00BFD10B00200C
:1039F000CB0901F00F00243303EB40030248002100
:103A0000184401F0A6BB00BFD10B002038B5154CFF
:103A100001F00F0504EB450404EBD11420342079A8
:103A2000C00707D5104B1B68DA0701D4002038BD4A
:103A300000BEFBE725790D4845F0010500782571AA
:103A400001F038F80028F2D1237960F300032371E4
:103A5000237960F382032371034B1B68DB07E5D5F1
:103A600000BEE4E7D10B0020F0ED00E09C03002055
:103A7000054B01F00F0203EB420303EBD11191F868
:103A8000240000F001007047D10B002010B50C4B52
:103A900018780C4601F056F80A4904F00F0301EBC0
:103AA000430101EBD41191F8243043F0020381F873
:103AB000243091F8243043F0010381F8243010BD04
:103AC0009C030020D10B002010B50C4B18780C463D
:103AD00001F04AF80A4904F00F0301EB430101EB3E
:103AE000D41191F824306FF3410381F8243091F818
:103AF00024306FF3000381F8243010BD9C030020B4
:103B0000D10B00202DE9F04FAF4B1B78FF2B89B074
:103B10003CD0AE4FAE4B1D682C46002054F8043B01
:103B20009847204605A901F043FD2B680446012073
:103B300098475CB39DF81530013B072B00F2AA8231
:103B4000DFE813F0080013009F02850290021C00BA
:103B50004F0298029DF81400FFF7B4FC00F030FB10
:103B60009C4B9DF818209A70D4E79DF81400FFF73D
:103B7000A9FC00F025FBFFF706FDCBE7964A13787A
:103B80003BB9964B1B68DC0700D500BE09B0BDE809
:103B9000F08F1378013BDBB21370137803F0FF0052
:103BA000002BB7D18B4C9DF81450237843F00103C0
:103BB000237094F8243060F3000384F8243094F8E0
:103BC000243060F3820384F8243094F8253060F3C5
:103BD000000384F8253094F8253060F3820384F8DC
:103BE000253000F0F5FA9DF8183003F06002602AE5
:103BF000A24606D1794B1B68DD0740F1788100BEF3
:103C000075E1402A0BD1764800F0E2FA06AA0121BC
:103C10002846FEF7F9FD00287FF47CAF67E103F04A
:103C20001F03012B00F09B813DD3022BE2D19DF8B5
:103C30001C1001F00F03072BDCD85B004FEAD11CEE
:103C4000E0186044067D3878864280F0B681654889
:103C5000006806EBC60600EB8606002A40F0B1813C
:103C60009DF81920012A03D0C0F0B181032AC1D1E7
:103C7000BDF81A302BB9012A284640F0AF81FFF772
:103C800023FF002E3FF446AF06F1140106AA284692
:103C9000FFF768FC002000F09BFA94F82530DE075F
:103CA0003FF538AF66E0202A1BD19DF81C300F2B62
:103CB00000F21D811C443B78217999420DD2494B79
:103CC0001B6801EBC10113EB810100F0108106AA12
:103CD00014312846FFF746FC9DE740F00881424931
:103CE000F5E7002A86D19DF81930092B82D801A268
:103CF00052F823F03F3F00082F3F0008F53B000833
:103D00001D3F0008F53B00081D3D00088D3E0008E2
:103D1000F53B0008373D0008433D000806A800F0C9
:103D20005DFA9DF81A10284600F0F6FE237843F05D
:103D300002032370EEE608AA637802F80E3D012321
:103D400008E19DF81A6063789E4213D063786BB1E6
:103D50000021284600F02AFE284600F059FE94F87B
:103D600002802846FFF7AEFB84F80280667036B901
:103D7000FFF709FC06A9284600F0D2F9CAE6701E32
:103D8000C0B2FEF799FA10B14378022B07D0134B5B
:103D90001B68DB0700D500BE002363702AE7C279E9
:103DA0002378511161F30413921162F345132370C8
:103DB0004388C31800F109060193019BB34215D84B
:103DC000FFF7E0FBD6E700BF9C030020D00B0020EC
:103DD000080C0020D10B00200C0C0020F0ED00E0BE
:103DE00009280008CC0B00206871000873780B2BA1
:103DF00003BF3278F378B61801237278042AC6D14B
:103E0000019A921B92B202924FF0000B39784A1C31
:103E10005FFA8BF8D2B290452FD2414516D9A34A0A
:103E20001168242202FB0812002AB0D0D2F81090A8
:103E3000029A039331462846C84708288146039BC7
:103E400021D9029A82421ED300210CE09FD1984AC8
:103E5000ECE7B07802445AFA82F201311079FF2877
:103E600095D182F80480CAB29A42F2D331464346D1
:103E70004A46904801F0C0F94E443B780133DBB22A
:103E800098459AD383E70BF1010BBFE7BDF81A0001
:103E9000030A5A1EC0B20E2A29D8DFE802F0081A17
:103EA0003328283C1A282828282828281400FEF718
:103EB000F5F9024600283FF49DAE122306A92846D4
:103EC00000F046F9A7E6FEF79BFC024678B143886E
:103ED000F4E7022B07D1FEF7EFF900283FF48AAE92
:103EE00043880246EAE7FEF71DFB0028F8D19DF85B
:103EF0001400002100F026FE80219DF8140000F03F
:103F000021FE07E6BDF81C10FEF73EFC0246002825
:103F1000EDD00378D2E7FEF701FBF7E7BDF81A30E2
:103F2000012BE4D1237843F00803237022E7BDF886
:103F30001A30012BDBD123786FF3C303F5E7237825
:103F4000C3F340129B0803F00203134308AA22F8AC
:103F50000E3D022306A9284600F0FAF8DAE59DF89E
:103F60001C300F2BC3D81C443B78217999421DD2B9
:103F70004E4B1B6801EBC10113EB8101B7D006AAC0
:103F800014312846FFF7EEFA00287FF4C3AD9DF800
:103F9000183013F06004AAD100F01AF99DF8193016
:103FA0000A2B06D00B2B3FF4E5AEA0E79FD140498A
:103FB000E5E708AA02F80E4DC1E672D13C4E12B9EF
:103FC0004EE6002E93D006AA06F1140181E69A442B
:103FD000E2449AF82430C3F34003B7E7FFF756FDF5
:103FE0004FE69DF81810344B01F00F0403EB440327
:103FF00003EBD11393F824006FF3000083F824003F
:1040000093F824006FF3820083F824003CB9079BE7
:104010009DF819209DF8140000F0ECF87AE51B7D5E
:104020003A7893420FD2214A126803EBC30312EB92
:1040300083033FF4A6AD9C699DF81920079B9DF86A
:104040001400A04766E57FF49CAD194BF3E71A4BCB
:104050001A78D0077FF55EAD1878C0F3C000FDF781
:10406000C3F957E5144B1B78D9077FF553ADFDF71E
:10407000C1F94FE5069B002B3FF44CAD07989847DC
:1040800048E50D4BDB78DA077FF544AD0698FFF77E
:1040900078FA3FE5094B1B68DB077FF53BAD00BEB7
:1040A00038E5002A7FF423AF1646D9E5CC0B002073
:1040B00068710008E50B0020D10B0020F0ED00E056
:1040C000144B9989DA8970B58C1AA4B2054693F914
:1040D0000000402C28BF402400280FDA914213D062
:1040E0009968A1B122460C4801F0E5FA80210A4AFC
:1040F00023462846BDE87040FFF788BC91424FF048
:104100000001F4D10A46F3E780210022F0E70846D7
:1041100070BD00BF500C0020100C00207047000044
:1041200030B40A4C05460A4608684968234603C36A
:104130000023C4E9023392F900209A4228461A4625
:10414000ACBF8021194630BCFFF760BC500C00208A
:10415000F8B5194D0C46074608684968AA602E460E
:1041600003C60021E981E1888B4228BF0B46AB8161
:1041700079B143B13AB9114B1B68DA0701D4002079
:10418000F8BD00BEFBE73846FFF79AFF68B1012093
:10419000F6E794F90030002B0A460B463846ACBFD0
:1041A00080210021FFF732FCF0E7044B1B68DB079E
:1041B000E5D500BEE4E700BF500C0020F0ED00E0C4
:1041C00014220021014801F081BA00BF500C0020E8
:1041D000014B1861704700BF500C00200146044A93
:1041E00000684968134603C30023C2E902337047DD
:1041F000500C0020F8B52F4F1E463B78C909B1EB93
:10420000D31F05463C4614D03EB12B4B1B68DA0742
:1042100001D40020F8BD00BEFBE73946FFF77EFF62
:104220003B690BB90120F5E73A4603212846984738
:10423000F8E797F90030002B06DBB8680028E8D0D3
:1042400032461E4901F037FAA368E289334432440A
:10425000A360E38892B29342E28101D03F2E24D83A
:1042600023699BB994F90030002B4FF000031A46E4
:10427000ACBF802119462846FFF7C8FB0028D1D1E2
:104280000D4B1B68DB07C4D500BEC3E70221094AFA
:104290002846984701460028E4D1284600F052FC01
:1042A0008021284600F04EFCBCE72846FFF708FFB7
:1042B000E4E700BF500C0020F0ED00E0100C0020FF
:1042C000284BF0B503EB001501282F7A01F00F06FB
:1042D00094BF04460024B74206D8234B1B68DB0773
:1042E00000D500BE0020F0BD200103321C58C809D3
:1042F0004FEA920215D1C2F30D0308333B445B0031
:10430000626A9BB29A420AD2184A92889A4205D2AD
:10431000154B1B68DC07E5D500BEE4E763620120AE
:10432000E1E76B7A114923B188798342D5D901300D
:104330008871A368180658BF5200606A8B8858BFFE
:1043400092B210448342C8D39B1A9BB28B8043EA3B
:1043500002420EB9A262E2E706F13F0304EB8304D6
:104360006260DCE78C710008F0ED00E0640C002076
:10437000022834BF014600210A4B0901595803EBBA
:1043800000131A7ADB68183252004A628A6C064AB5
:104390009B0893809AB242EA0343CB654022802176
:1043A000FFF78EBF8C710008640C0020F0B5012867
:1043B00088BF00208F78214B214A0001FD091C583D
:1043C0008B88D4F808C807F00F0005EB400602EB15
:1043D0000612C3F30A0656818E791CF0060F02BF3F
:1043E00006F1FF364FF0010C0CFA06F61673CA7888
:1043F000C3F30A03C2F3010143F4004302F00302D2
:1044000061F39343012A18BF43F080530DB167F362
:10441000995385F0010200EB021248325201012D3E
:10442000A35014BF10230023D4F81C2818440123E0
:1044300083401343C4F81C38F0BD00BF8C710008E2
:10444000740C0020012888BF0020374B000170B594
:1044500001F00F04C909185881F001031B01002A5B
:1044600003EB040214BF4FF40015002500EB4212C9
:1044700061B3D2F800190029D2F8001941F00061A7
:104480000ADB2943C2F80019A30143F020030361AA
:1044900003699B06FCD470BDC2F800191646D6F815
:1044A00008194906FBD5D2F8001941F0804129438B
:1044B0002344C2F8001900EB4313D3F80819890705
:1044C00003F60812F9D502231360DDE7D2F80019CC
:1044D000002900DA2CB9D2F800192943C2F80019D2
:1044E000D9E7D0F8041841F40071C0F80418416904
:1044F0000E06FCD5D2F8001941F08041294323442F
:10450000C2F8001900EB4313D3F80819890703F622
:104510000812F9D502231360D0F8043843F48063FD
:10452000C0F80438B7E700BF8C7100082DE9F74FD9
:10453000012888BF0020204B204C00014FEA411A7F
:1045400053F8008008EB0A030027D3F81039C3F3AF
:10455000C94B4B1C08EB0333894601933E46544438
:10456000BBB29B4503D8304603B0BDE8F08F08EBE3
:104570000A02658BD2F810399BB29D4228BF1D46B6
:10458000D2F818390E4A02EA83039D42EBD86069DB
:104590002E44B6B228B12A46019901F018F8013725
:1045A000DEE72B4622694946404600F097FD236925
:1045B0001D442561F3E700BF8C710008740C0020D6
:1045C000FCFF03000228F8B534BF0346002314465D
:1045D0001B012C4A0D46D65884F00102002941D116
:1045E000294F37F81430402B194628BF40215B1A59
:1045F00027F814300123002761F3120763F3DC4727
:1046000005EB021306EB43131A46C3F81079D3F8EF
:1046100000391F46C7F3074707F00C07042F43F084
:10462000044307D1D6F80878FF054CBF43F0805308
:1046300043F00053012CB76CC2F8003911D181B19D
:104640002946FFF773FF65B1104B03EB45131B8B36
:10465000181A0028C1BFD6F83428AC401443C6F855
:104660003448F8BD04EB4103084901EB03135F89AB
:104670001989CB19013BB3FBF7F39BB2002B08BFA1
:104680000123B8E78C710008640C0020740C002032
:10469000022834BF034600231B01584A2DE9F04F7E
:1046A000D558DFF864B1AB6CAB6C89B0C3F383232E
:1046B0000133012903930CBF00231023019381F0E0
:1046C000010305EB432303F5106306468946029375
:1046D0000024019BD5F818281919CA40D2075FFA9F
:1046E00084FA2DD5029B4FEA441803EB0802B9F176
:1046F000010F9768976041D1FB0708D544BBBBF811
:1047000002202AB34A4621463046FFF75BFF3F06A8
:1047100016D5D5F83428E240D00711D5A844514623
:104720003046FFF703FFD8F81039C3F312033BB943
:10473000D5F834380122A24023EA0203C5F8343800
:104740000134039AE3B29A42C3D809B0BDE8F08FAE
:104750002B4B8DF8146003EB08020721128B8DF8A8
:1047600015106AF07F018DF81810079201210022C0
:1047700005A88DF81920FEF79BFFC8E7FAB21107CC
:1047800018D5D5F80039002B04DA002280213046F4
:10479000FFF758FE06238DF815301A4B8DF814607C
:1047A00093E8030008AB03E90300012105A8FEF725
:1047B0007FFFC5E7D307C3D527F4FF4727F05F077F
:1047C000BFB2002FBCD144B9BBF800202AB12246A9
:1047D00021463046FFF7F6FEB2E7094B8DF814602C
:1047E00098440721B8F808208DF8151000238DF89B
:1047F00018A007928DF81930D7E700BF8C71000818
:10480000740C00206C0C0020640C0020084B03EB9F
:104810000010426853B2002B08DB012102F01F0296
:1048200001FA02F25B09034941F82320704700BFF7
:104830008C71000800E100E00A4B03EB00104268B5
:1048400053B2002B0DDB01215B0902F01F0201FABC
:1048500002F22033044941F82320BFF34F8FBFF306
:104860006F8F70478C71000800E100E0012888BF5D
:10487000002000010F4B1B58D3F8042842F001021E
:10488000C3F8042808225A619A6942F008029A6122
:10489000094A4FF47A711268B2FBF1F212F1FF3259
:1048A00006D2D3F8042822F00102C3F80428704786
:1048B00000BFF3E78C710008A8030020012888BF1F
:1048C0000020054B00011A58D2F8043823F00203E7
:1048D000C2F80438704700BF8C710008012888BFF7
:1048E0000020054B00011A58D2F8043843F00203A7
:1048F000C2F80438704700BF8C7100080228F8B570
:1049000034BF03460023254A1B010026D458244BFC
:1049100005461E605E600121204600F031FB3246F4
:10492000014607462846A36C00F032FB014630B929
:104930001C4B1B68DB0700D500BE0846F8BDD4F849
:10494000003823F003032FB3A26C02F0C002802AC8
:1049500001D143F4804343F00403C4F800382846EF
:10496000FFF7BCFFE36823F0C04343F08043E360FC
:10497000236823F0D00343F0C0032360A2690A4BED
:104980001343A361A36843F08103A3602846FFF7A4
:1049900095FFD2E743F00303DDE700BF8C71000809
:1049A000640C0020F0ED00E004300080012888BF96
:1049B00000200001074B084A1B58D17131B1082271
:1049C0005A619A6942F008029A6170479A6922F026
:1049D0000802F9E78C710008640C002070B58A8821
:1049E0000C46C2F30A0289780646FFF769FC0546C1
:1049F00030B9064B1B68DB0700D500BE284670BDEA
:104A000021463046FFF7D2FCF8E700BFF0ED00E0AA
:104A1000022834BF02460022F8B51201224B9C58EE
:104A200003EB0013064600201D7AFEF75FFF1F4BC5
:104A30001F4800229A714FF00113C4F81C38012757
:104A40009446FBB2AB421BD204EB47132030D3F8A1
:104A500000190029BEBFD3F8001941F09041C3F8F6
:104A60000019D3F8001B42830029BEBFD3F8001BF6
:104A700041F09041C3F8001B0137A0F80AC0E0E7FD
:104A80004FF48463236123699B06FCD410232361C4
:104A9000256915F01005FBD13046FFF769FC284663
:104AA000BDE8F840FEF730BF8C710008640C0020B0
:104AB000740C00202DE9F84F01F00F09CC09144FB8
:104AC00004EB49063601BD198046002092469B46FC
:104AD000FEF70CFF6889C8B100236B602B7B47F899
:104AE00006A0A5F808B06B73B9F1000F02D1094B0D
:104AF00023F814B0224649464046FFF763FD0124DF
:104B00000020FEF701FF2046BDE8F88F0446F7E7D6
:104B1000740C0020640C0020012894BF034600237D
:104B20001B01074AD258D2F8003823F4FE6343EA47
:104B300001110023C2F800181A468021FFF7BABFFE
:104B40008C71000838B5012894BF034600231B016F
:104B5000044A0D46D4580122FFF774FC2B0708BF06
:104B6000A36C38BD8C710008012888BF0020CB09D8
:104B700000010B4A01F00F0183F0010301EB031365
:104B8000115801EB4311D1F8003923F40013C1F897
:104B90000039D1F8003943F08053C1F8003970472B
:104BA0008C710008022834BF034600231B01954A7C
:104BB0002DE9F04FD458A36966691E40F10487B00F
:104BC000054674D54FF4805363610120FEF78EFED5
:104BD000A76C8D484FF48072002100F077FD8B4A5E
:104BE0000023C7F383270137D371937104EB43117B
:104BF0000133D1F8002B42F00062C1F8002BDAB289
:104C00009742F3D8002304EB43120133D2F8001982
:104C10000029BEBFD2F8001941F09041C2F8001936
:104C2000DAB29742EFD84FF00113C4F81C380923C9
:104C3000C4F81438C4F810384FF48463236123692E
:104C40009A06FCD410232361276917F01007FBD1C3
:104C50002846FFF78DFBD4F8003867F30A13C4F831
:104C60000038D4F8003923F00303C4F80039D4F82D
:104C7000003B23F00303C4F8003BD4F80039C4F828
:104C80000039D4F8003BC4F8003B5F4B40225A8304
:104C90005A81A36CD4F8103B43F0C043C4F8103BD6
:104CA000A36943F4E013A3610120FEF72DFEB304D2
:104CB0001DD54FF4005363614FF400636361A36932
:104CC00043F40063A361D4F80838C3F34103002B15
:104CD00000F095809F1E7B427B41012103A88DF847
:104CE0000C508DF80D108DF81030FEF7E1FC3005FA
:104CF0000FD54FF400636361A36923F40063A361DC
:104D00000121042303A88DF80C508DF80D30FEF717
:104D1000CFFC002E0FDA4FF000436361A36943F428
:104D20000063A3610121052303A88DF80C508DF8C1
:104D30000D30FEF7BDFC71070CD567687A0708D502
:104D40000223012103A88DF80C508DF80D30FEF7D9
:104D5000AFFC676033071AD508236361A3692B4A48
:104D600043F40063A361D4F80838D279C3F30D2368
:104D70001AB9A26922F00802A2610322012103A844
:104D80008DF80C508DF80D200493FEF791FCF7067A
:104D90004FD5A369DFF878A0DFF86CB023F01003DB
:104DA000A361276AC7F34342042A07F00F0900F002
:104DB0009380062A2ED0022A34D1C7F30A174FEA6D
:104DC000491857B10BEB080250683A46002800F02A
:104DD0008C8004F5805100F030FC0BEB0802518907
:104DE000B9421FD9A0441189D8F8100B091A1181B2
:104DF000B9F1000F16D1054BA3F8009012E0022381
:104E00006BE700BF8C710008740C0020640C00205C
:104E10006C0C002004F5805211681268CAF800106A
:104E2000CAF804206269D006BBD4A36943F010031A
:104E3000A361310303D500212846FFF729FC720343
:104E400003D501212846FFF723FCF30241D54FF497
:104E500080136361D4F80838C3F30028A36CC3F34C
:104E6000832303F1010A344B002748F2040B4FEA75
:104E7000471C04EB0C00314AD0F8001902EA114239
:104E80005A455FFA87F920D1C1F3004290451CD101
:104E90009C449CF81D60B6B3013EBCF818208CF809
:104EA0001D60BCF81AC0002662F312066244013A83
:104EB000B2FBFCF262F3DC46C0F81069B8F1000FF7
:104EC0001ED041F08051C0F800190137FAB2924566
:104ED000CDD807B0BDE8F08F04EB4919D9F8102BF5
:104EE00042F0C042C9F8102B9CE75BF8081020463E
:104EF00000F0CEF85BF808203A444BF808206CE745
:104F000041F00051DFE749F0800932464946284622
:104F10000193FFF797FA0722012103A88DF80C509F
:104F20008DF80D208DF8109005968DF81110FEF774
:104F3000BFFB019BC9E700BF740C00200C80FFFF82
:104F40000369002BFCDA036C026942F00102026182
:104F50009BB244F20922934206D80369DA07FCD4D3
:104F60000369002BFCDA704703699B00FCD50369D9
:104F700023F0005323F0010343F000530361EFE7F4
:104F8000836C13F0C00F14BF012000207047000095
:104F9000012888BF002038B50001394B1C58236C0C
:104FA00015461B0C374A1B04934213D0364A9342D2
:104FB00010D002F5803293420CD0344B1A68D207DD
:104FC00000D500BE1D6815F0010501D000BE00250A
:104FD000284638BDA36823F00103A36000293CD014
:104FE000E168A36C226D03F0C003802B03BF21F4A2
:104FF000681121F0C80141F0100121F05801E16071
:105000002046FFF79DFF21F4705141F41051E160FB
:10501000A36B43F45023A363E36843F00703E36007
:10502000D4F8003E23F00F03C4F8003E4FF484632D
:10503000236123699B06FCD410232361236913F0A9
:105040001003FBD14FF0FF3262616260A36185B152
:10505000A36843F02603A360BAE7E16841F0400388
:10506000E3602046FFF76CFF21F4705141F4A25138
:10507000CDE7A36943F01003A3610125A8E700BFB2
:10508000AC7100080000544F00003155F0ED00E015
:10509000F0B5940823460D464FF6FF7600F580578D
:1050A000013B9BB2B34214D112F0030201EB840521
:1050B0000ED000F58050012A036801F8243007D093
:1050C000032A4FEA132108BF1B0C697008BFAB709D
:1050D000F0BDD7F800C045F804CBE1E70131F0B5E9
:1050E00009039D0800EB010C2C4616464FF6FF778E
:1050F000013CA4B2BC4210D113F0030302EB8504BF
:105100000AD0012B12F8252005D0032B228804BFDA
:10511000A37842EA03424250F0BD56F804EBCCF8C3
:1051200000E0E5E7037813F0010310D10278C2F341
:10513000800262B9037813F0010308D102785307A3
:1051400005D4037843F00403037001207047002066
:1051500070470378C3F380034BB1027812F001016A
:1051600005D1027861F38202027018467047002070
:105170007047000010B5C478838804F00304022C43
:10518000C3F30A030BD02FD8012C13D1022940F20C
:10519000FF3208BF4FF480629A4205D320E0022913
:1051A0000AD1B3F5007F1BD0114B1A6812F001022F
:1051B0000AD000BE002207E042B1B3F5007F05D15E
:1051C0004023037100234371104610BDA3F1080270
:1051D00092B2182A06D8074B23FA02F2D307E3D576
:1051E0000122F1E7402BDEE7022918BF4022D0E779
:1051F000F0ED00E00101000130B50A44914200D316
:1052000030BD4C78052C06D18C7804F00F0500EBEE
:105210004505E4092B550C782144EFE70A4492B286
:1052200091424FEA400001D8824201DB121A92B249
:105230001046704738B50D46D41A8188A4B29A42F8
:105240003CBF04EB4104A4B2BCB1A14205D29142DF
:1052500094BF531A8B189BB2438199420AD9C288D2
:105260000168C2F30E0202FB0311284600F023FA84
:10527000012038BD5B1A9BB2EFE72046F9E7F7B58E
:105280000446900803460D464FF6FF76013B9BB25D
:10529000B3420ED112F0030201EB800107D002A845
:1052A000002340F8043D00F006FA019B236003B0A0
:1052B000F0BD55F8047B2760E8E72DE9F3470F467A
:1052C000BDF8281084885E1AB6B28B423CBF06EB4C
:1052D0004406B6B280466EB3B44206D29C4294BF36
:1052E000191BE11889B241812646964228BF16460D
:1052F0008C4223D9B8F80630D8F80050C3F30E0317
:10530000641A9AB2A4B202FB01559DF82C10A6EBC8
:10531000040914FB03FA19FB03F901291FFA8AFA9D
:105320001FFA89F918D0A6420BD87243294638468D
:1053300000F0C1F9304602B0BDE8F087091B89B220
:10534000D6E752462946384600F0B5F94A46D8F81D
:10535000001007EB0A00EBE7A64207D816FB03F2A2
:1053600092B229463846FFF78AFFE3E72AF00304A2
:10537000A4B2224629463846FFF781FF1AF0030AF5
:1053800028D0CAF104039BB24B4505EB040102ACE3
:1053900028BF4B460020A9EB030944F8040D1FFA6F
:1053A00089F90A5C0255421C92450CD1D8F80010CC
:1053B00020440B44994208D1019B3B60B9F1000F96
:1053C000B8D04A46CEE71046EBE711F8012B00F8BB
:1053D000012FEFE7D8F80010F0E7F7B5940823465F
:1053E00005464FF6FF76013B9BB2B3420CD112F05B
:1053F000030200EB840005D00B6802A941F8043DCC
:1054000000F059F903B0F0BD0F6845F8047BEAE7F6
:105410002DE9F74F1446C2790589B0F804800F468C
:1054200041899B46D3090646ADB289B215D18D425A
:1054300036BFC1EB4801691A491989B2414536BFE7
:10544000A8EB0101002189B28C4228BF0C46002C38
:1054500050D1204603B0BDE8F08F44450CD3BBF1DA
:10546000000F06D1C288A4EB0804C2F30E0202FBAF
:1054700004770D464446EAE78D424FEA480036BFBE
:10548000421A6A1A521992B222448242DFDBA8EB16
:10549000040292B24046FFF7C1FE0546D7E7ACEBE7
:1054A000080C1FFA8CFCC445F9D2A8EB0C01F0885B
:1054B000336889B2C0F30E00A4EB010982B211FB7C
:1054C00000FA19FB00F9BBF1010F1FFA8AFA1FFA63
:1054D00089F902FB0C3819D08C420DD86243394649
:1054E000404600F0E8F822462946B088FFF796FECD
:1054F0003081AEE7AC46D6E752463946404600F02A
:10550000DAF84A4607EB0A013068EAE78C4207D826
:1055100014FB00F292B239464046FFF75EFFE2E725
:105520002AF0030B1FFA8BFB5A4639464046FFF719
:1055300054FF1AF0030A28D0CAF1040080B248458B
:1055400002AB28BF48463A6843F8042DA9EB00098E
:10555000D8441FFA89F90021CA5C08F801200131FA
:105560008A45F9D19A4433680AEB00015A1E514525
:1055700006D11844B9F1000FB5D04A463946CCE7F8
:105580001AF801CB02F801CFF1E73068F2E703899E
:105590004289818892B29BB2934236BFC2EB4102EC
:1055A0009B1A9B189BB299428CBF00200120704728
:1055B00010B5028943890446FFF73CFE6189034622
:1055C00082B2A088FFF72AFE6081184610BD73B52D
:1055D000038945890126CDE900560446FFF76DFE93
:1055E000618903460246A088FFF718FE60811846CD
:1055F00002B070BD70B5058904460E46ADB2FFF726
:10560000C6FF10B1E079C00913D0A2882B469A4298
:1056100010D9E2882068C2F30E0202FB0300314673
:1056200000F049F801222946A088FFF7F7FD208104
:10563000012070BD9B1A9BB2E9E712B10123FFF76D
:10564000E7BE104670470023438103810120704765
:1056500070B50D4E0D4CA41BA4100025A54209D118
:105660000B4E0C4C00F0DEFDA41BA4100025A5423F
:1056700005D170BD56F8253098470135EEE756F84C
:10568000253098470135F2E7EC710008EC7100080D
:10569000EC710008F071000830B50024A24201D17D
:1056A000002007E0035D01340D1915F8015CAB42E1
:1056B000F4D0581B30BD10B5431E0A44914200D1AE
:1056C00010BD11F8014B03F8014FF7E70244034600
:1056D000934200D1704703F8011BF9E7002103E072
:1056E0000B4B5B58435004310A480B4B42189A420B
:1056F000F6D30A4A02E0002342F8043B084B9A42E0
:10570000F9D300F011F8FFF7A3FFFCF77DFA70471B
:10571000F471000800000020AC030020B00300205A
:1057200040300020FEE7000008B5012000F07EFABE
:10573000194B1A6842F001021A601A689207FCD5E8
:105740009A686FF301029A60134B9868C0F3810066
:105750000028FAD14FF080429A601A6822F08672CF
:1057600022F480321A6040F2C1725A60D3F8A0204D
:1057700002F4A042C3F8A020D3F8A02042F4702283
:10578000C3F8A0204FF41F02DA6000F04FFA034B79
:105790004FF000629A6008BD0038024000ED00E062
:1057A00038B500F059FB01282149224B22D003D300
:1057B000022825D0204A10E0D1F8A020500417D5A7
:1057C000D1F8A020D20413D51C4A1A60184AD2F886
:1057D000A4101A68C1F30241CA401A60144A184959
:1057E0009268C2F30312895C1A68CA401A6038BD15
:1057F000114AEAE7D1F8A410124AC1F3C241EBE71B
:105800004C684A68486849680F4DC1F3034114F079
:10581000804F695C0B4D084CC2F3881200F00F00FA
:1058200018BF2C46624311FB00F1B2FBF1F2D4E742
:1058300000380240A803002000127A00006CDC024D
:10584000DC710008001BB700CC71000808B5074BDD
:10585000984209D10121064800F08DF90021044841
:10586000BDE8084000F087B908BD00BF0020014036
:1058700008002400836861F30003836070470023FD
:105880000370437083700123C370704743680A78C4
:1058900062F30823436083684A7862F341038360BC
:1058A0008A78836862F3CB238360CB78C26A013B3A
:1058B00063F31752C2627047024B5A6860F3134297
:1058C0005A60704700230140836861F308238360B6
:1058D0007047836843F00803836070478068C0F3B3
:1058E000C0007047836843F004038360704780689A
:1058F000C0F38000704710B511290ED8DFE801F021
:10590000091A1E22262A2E32363A3E43474B4F535F
:10591000575B046963F302040461013A0F2A52D809
:10592000DFE802F04D52565A5E62666B6F73777B0A
:105930007F84888C046963F3C504EDE7046963F32D
:105940008814E9E7046963F34B24E5E7046963F32A
:105950000E34E1E7046963F3D134DDE7046963F3EE
:105960009444D9E7046963F35754D5E7046963F3B2
:105970001A64D1E7046963F3DD64CDE7C46863F3B7
:105980000204C460C9E7C46863F3C504F9E7C468E6
:1059900063F38814F5E7C46863F34B24F1E7C46844
:1059A00063F30E34EDE7C46863F3D134E9E7C46808
:1059B00063F39444E5E7C46863F35754E1E7436B4A
:1059C00061F30403436310BD436B61F34913F9E7CB
:1059D000436B61F38E23F5E7436B61F3D333F1E758
:1059E000436B61F31853EDE7436B61F35D63E9E7E4
:1059F000036B61F304030363E5E7036B61F349138E
:105A0000F9E7036B61F38E23F5E7036B61F3D3339F
:105A1000F1E7036B61F31853EDE7036B61F35D632B
:105A2000E9E7C36A61F30403C362CCE7C36A61F3C5
:105A30004913F9E7C36A61F38E23F5E7C36A61F39B
:105A4000D333F1E7836861F353438360836862F380
:105A5000145383607047836861F396538360704783
:105A6000024A936843F0010393607047003002409C
:105A7000014B18601868704700300240054B00EB7E
:105A80008101884201D11868704750F8042B1A60D0
:105A9000F7E700BF003002401C4BD3F8A42042F0CF
:105AA0003002C3F8A4201A6842F001021A601A6892
:105AB0009207FCD59A686FF301029A60134B9968BC
:105AC000C1F381010029FAD14FF080429A601A682F
:105AD00022F0867222F480321A6040F2C1725A605B
